:020000040800F2
:1000000010D601209D010008AB3C0008A33C00086D
:10001000A73C00088D1900089D4F00080000000053
:10002000000000000000000000000000454A000839
:100030009119000800000000AD3C0008474A000884
:10004000C1010008C1010008C1010008C101000888
:10005000C1010008C1010008C1010008C101000878
:10006000C1010008C1010008C1010008C101000868
:10007000C1010008C1010008C1010008C101000858
:10008000C1010008C1010008C1010008C101000848
:10009000C1010008C1010008C1010008C101000838
:1000A000C1010008C1010008C1010008C101000828
:1000B000C1010008654A0008754A0008C10100082E
:1000C000C1010008C1010008C1010008C101000808
:1000D000C10100088D4F0008C1010008C1010008DE
:1000E000C1010008C1010008C1010008C1010008E8
:1000F000C1010008C1010008C1010008C1010008D8
:10010000C1010008C1010008C1010008C1010008C7
:10011000C1010008C1010008C1010008C1010008B7
:10012000C1010008C1010008C1010008C1010008A7
:10013000C1010008C1010008C1010008C101000897
:10014000C1010008C1010008C1010008C101000887
:10015000C1010008C1010008C1010008C101000877
:10016000C1010008C1010008C1010008C101000867
:10017000C1010008C1010008C10100080000000021
:10018000C1010008C1010008DFF80CD000F0CAFA74
:1001900000480047C59D000810D6012009480168A5
:1001A00041F4700101600848804708480047FEE7B5
:1001B000FEE7FEE7FEE7FEE7FEE7FEE7FEE7FEE717
:1001C000FEE7000088ED00E0514A000889010008C0
:1001D0002DE9F05F0546002092469B46884606467C
:1001E000814640241BE0284641464746224600F00F
:1001F000CAF853465A46C01A914110D311461846C0
:10020000224600F0B1F82D1A67EB01084F4622464E
:100210000120002100F0A8F817EB00094E41201E34
:10022000A4F10104DFDC484631462A464346BDE8D6
:10023000F09F40EA01039B0703D009E008C9121FA1
:1002400008C0042AFAD203E011F8013B00F8013B90
:10025000521EF9D27047D2B201E000F8012B491EBC
:10026000FBD270470022F6E710B513460A46044653
:100270001946FFF7F0FF204610BDCAB2401E10F825
:10028000011F8A4202D00029F9D100207047421C88
:1002900010F8011B0029FBD1801A704730B50446C5
:1002A0000020034600E05B1C934203D2E05CCD5C7F
:1002B000401BF8D030BD00F0004230F000400AD0C2
:1002C000C10D01F56071C0F3160042EA0151C20888
:1002D00040071143704700200146704730B5041EA7
:1002E00071F1000404DB4FF00044404264EB010173
:1002F000141E73F1000405DB1C464FF0004352420C
:1003000063EB04038B4208BF824230BD30B5041E4C
:1003100071F1000404DB4FF00044404264EB010142
:10032000141E73F1000405DB1C464FF000435242DB
:1003300063EB0403994208BF904230BD30B50B46D1
:10034000014600202022012409E021FA02F59D4205
:1003500005D303FA02F5491B04FA02F52844151ED9
:10036000A2F10102F1DC30BD202A04DB203A00FAC0
:1003700002F1002070479140C2F1200320FA03F3FC
:10038000194390407047202A04DB203A21FA02F0FA
:100390000021704721FA02F3D040C2F120029140BF
:1003A00008431946704710B541000CD0C0F3C7513F
:1003B000962908DC7E2909DC06DB410204D000F026
:1003C000004040F07E5010BD002010BDC1F19604E9
:1003D000C4F1200100FA01F1E04000F0C7F9A040AB
:1003E00010BD2DE9FE4F804681EA0300C00F0C4688
:1003F000009021F0004123F00045B8EB0200A94134
:1004000005D24046214690461C460B46024623F044
:100410000040104347D0270DC7F30A00C3F30A5129
:100420000290401A019040286BDAC3F3130040F4A5
:10043000801B0098924620B10023D2EB030A63EBA5
:100440000B0B01985946C0F140025046FFF78CFF54
:1004500006460D4650465946019A00F075F910EBD4
:1004600008006141002487EA115284EAE7731A43C5
:1004700040D0009A62B3019A012A4FEA075215DC74
:10048000001B61EB02014FF0004202EA0752CDE986
:100490000042001C41F5801132462B4600F0ACF9B9
:1004A00003B0BDE8F08F40462146F9E7001B61EB41
:1004B0000201001C41F5801300185B412018A2F5D1
:1004C000001747EB030140EAD570B6196D4111E002
:1004D0006D084FEA360645EAC0754FEA0752001B21
:1004E00061EB0201001C41F5801149084FEA300020
:1004F0000019514132462B4603B0BDE8F04F00F0E1
:100500006CB90098012240000023D0EB020263EB9B
:10051000E073009821464FEAE074B8EB000061EB0D
:100520000401E9E783F000435BE781F0004158E70D
:100530002DE9FE4F81EA030404F0004421F000415C
:1005400000944FF0000B23F0004350EA01045ED00A
:1005500052EA03045BD0C3F30A54C1F30A552C4496
:10056000A4F2F3340194A0FB0254C1F3130141F44B
:100570008011C3F3130343F4801301FB024400FB17
:10058000034E840A970A44EA815447EA8357A4FB3E
:10059000076802958D0A05FB07854FEA932C04FB3B
:1005A0000C542705029D4FEA065847EA1637B5EB6B
:1005B00008056EEB070C870E920E47EA811742EA98
:1005C0008312A7FB0201B6EB0B0164EB00042B0DB9
:1005D00043EA0C335E1844EB1C50DA465146E7FB05
:1005E0000201C5F313044FEA0B3343EA14534FEAF5
:1005F0000432019C43EA0603A4F10C040294009C1B
:10060000CDE900B400F0F8F803B0BDE8F08F0020A9
:100610000146F9E72DE9F04D81EA030404F0004BAF
:1006200021F0004514464FF0000A23F0004150EA43
:10063000050220D054EA01021DD0C5F30A57024634
:10064000C5F31303C1F31300C1F30A5640F4801538
:1006500043F48013A7EB0608101BD64608F2FD38BA
:1006600073EB050002D308F1010801E092185B4129
:10067000B8F1000F03DA00200146BDE8F08D00203C
:100680004FF48011064684460EE0171B73EB0507F6
:1006900005D3121B63EB050306434CEA010C490822
:1006A0004FEA300092185B4150EA0107EDD152EA5F
:1006B000030012D082EA040083EA0501084305D052
:1006C000101BAB4106D20122002306E000224FF0AE
:1006D000004302E06FF0010253101AEB06004CEBEE
:1006E000085110EB0A0041EB0B01BDE8F04D00F0A2
:1006F00074B8C1F30A52C1F3130140F2FF3341F45D
:1007000080119A4202DA00200146704740F23343DA
:100710009A42A2F2334202DC5242FFF734BEFFF7A4
:1007200023BE0000064C074D06E0E06840F00103E0
:1007300094E8070098471034AC42F6D3FFF728FD41
:100740001C6005083C600508202A06DBCB17203A10
:1007500041FA02F043EAE07306E041FA02F3D040C6
:10076000C2F1200291400843194670470029A8BFF2
:100770007047401C490008BF20F00100704710B4CA
:10078000B0FA80FC00FA0CF050EA010404BF10BC7F
:10079000704749B1CCF1200421FA04F411FA0CF1AC
:1007A00018BF012121430843A3EB0C01CB1D4FEAE5
:1007B00000614FEA102042BF002010BC704700EBE0
:1007C000C35010440029A4BF10BC7047401C49000E
:1007D00008BF20F0010010BC704710B5141E73F163
:1007E000000408DA401C41F1000192185B411A43F1
:1007F00001D120F0010010BD2DE9F04D92469B463D
:1008000011B1B1FA81F202E0B0FA80F220329046E2
:10081000FFF7AAFD04460F4640EA0A0041EA0B0131
:1008200053465A46084313D0114653EA010019D0E3
:10083000C8F140025046FFF7A6FD05460E46504659
:1008400059464246FFF790FD084305D0012004E0D9
:1008500020463946BDE8F08D0020054346EAE076A3
:100860002C4337430A986305E40AA0EB08000022F2
:10087000FD0A44EA47540A3002D500200146E9E760
:10088000010510196941DDE9084500196941BDE814
:10089000F04DA2E770B58C1810F8015B15F0070356
:1008A00001D110F8013B2A1106D110F8012B03E009
:1008B00010F8016B01F8016B5B1EF9D12B0705D411
:1008C0000023521E0DD401F8013BFAE710F8013B5A
:1008D000CB1A921C03E013F8015B01F8015B521E76
:1008E000F9D5A142D8D3002070BD0000F0B5F1B118
:1008F000002300BF02EB430C32F813E0BCF802C047
:100900002EF0030E2CF0030C50F80E5050F80C6033
:1009100000EB0E0400EB0C0740F80E6040F80C50A2
:100920007E68656802338B4266607D60E2D3F0BD0D
:100930002DE9F0410488984616460746012A0D46DF
:100940000CD1E4B3281D214690ED000A0139B1EE27
:10095000400A80ED000A00F10800F5D1FF2C0CDD03
:10096000B4F5806F10DBB4F5805F22D0B4F5006F72
:1009700011D0B4F5806F17D021E03F2C10DC102C83
:1009800012D0202C07D01AE0B4F5807F03D0B4F544
:10099000007F0ED013E03846294600F05FF90EE0E4
:1009A000402C06D0802C0AD13846294600F08AF81F
:1009B00005E07A6828462146012300F04DFBB8F196
:1009C000000F04D0B989BA682846FFF78FFF012EBF
:1009D0001CD100EE104A002CB8EE400A08BFBDE85A
:1009E000F081B7EE001A81EE000A00BF95ED001A03
:1009F00095ED012A20EE011A22EE402A85ED001A1B
:100A000085ED012A013C05F10805EFD1BDE8F08133
:100A100000224260FF294FF0FF0201800EDDB1F598
:100A2000806F16DB29D0B1F5805F2BD0B1F5006F58
:100A300046D14EF2BC03C0F6030336E03F2913DC77
:100A4000102924D020293BD14EF2DC03C0F6030349
:100A50002BE0B1F5807F1FD0B1F5007F30D14EF291
:100A6000FC03C0F6030320E040291AD0802927D1D7
:100A70004EF29C03C0F6030317E04EF28C03C0F65F
:100A8000030312E04EF2EC03C0F603030DE04EF256
:100A9000AC03C0F6030308E04EF2CC03C0F6030338
:100AA00003E04EF20C13C0F60303191D03F1080214
:100AB0000C331B88126809688381C0E90112002287
:100AC00050B270472DE9F0472DED028B0388804628
:100AD000084601EB830AD8F804200021B1EBD30FBC
:100AE0004FEA530900F0AB80D9080AEB890C00EB00
:100AF000890E0027C4190AEB070594ED000A95ED4D
:100B0000003A94ED011A95ED014A0EEB07030CEB48
:100B1000070694ED022A95ED025A70EE035A93ED02
:100B2000006AD6ED001AD6ED012AD6ED023AD6EDCE
:100B3000034AC4ED005A71EE045A93ED017AC4EDF4
:100B4000015A72EE055AD3ED020AC4ED025AD4EDF1
:100B5000035AD5ED036A31EE441A35EEA68A36EE15
:100B6000214AD3ED037A84ED038A83ED004A37EE00
:100B7000224A83ED014A30EEA34A83ED024A37EE62
:100B8000A44A83ED034AD31931EEC64A33EEE06A34
:100B9000D3ED000AD3ED011A30EE430A32EE452AB6
:100BA00032EEC75A60EE202A61EE213A21EE201A79
:100BB00020EE210A31EE400A85ED010A24EE210AD9
:100BC00025EE211A25EE205A72EEA32A24EE204AA1
:100BD00030EE450AC5ED002A86ED000A34EE010A22
:100BE00086ED010A93ED020A93ED031A35EEE63A1B
:100BF00022EE004A23EE015A23EE003A22EE012AA9
:100C000034EEE77A33EE422A85ED032A26EE012AF6
:100C100027EE011A27EE003A26EE000A34EE054AC6
:100C200032EE432A30EE010A013907F1100785ED53
:100C3000024A86ED022A86ED030A7FF45BAF49463D
:100C4000022300F009FAD8F804205046494602234E
:100C5000BDEC028BBDE8F04700F0FEB92DE9F04F86
:100C600081B02DED088B8EB002880346500801EB51
:100C7000800505EB800691ED000A91ED011A96EDD5
:100C8000002A96ED013A04935B6806EB800730EE8C
:100C9000024A30EE420A31EE032A31EE431A95ED54
:100CA000013A95ED005A0593930897ED017AD7ED37
:100CB000000A029374EE452A72EE433A34EE054A76
:100CC00032EE032A6FF0010334EE204A32EE072A97
:100CD00003EB920230EE036A71EE451A30EE430ADE
:100CE00031EE051A81ED004A0A9181ED012A510881
:100CF00036EE476A71EEA01A72EEE02A73EEC73A3A
:100D000030EE070A31EE601A0095019603970D91B7
:100D1000C10085ED006AC5ED011AC6ED002AC6EDD9
:100D2000013A87ED000A87ED011A0C9100EB4001B2
:100D30006FF007036FF003074FEA800E07EBC00B5D
:100D400007EB800A03EB001903EB81028C00002003
:100D5000002500210B9100BF0A9E059B0790069578
:100D6000089406EB04080C9C311806EB040C06EB07
:100D70000E0491ED020A9CED022AD4ED020A30EE37
:100D8000026AD8ED022A36EE204A34EE224A91ED6C
:100D9000031A9CED033AD4ED031AD8ED033A81ED22
:100DA000024A94ED034A31EE037A98ED035A37EE86
:100DB000044ACDF824E034EE054A81ED034A0B994C
:100DC00030EE420A31EE431A30EE212A03EB010ED7
:100DD00032EE634A31EE602A0D9932EE225A36EE37
:100DE000602A37EE613A30EE610A31EE201A1F18A0
:100DF000581932EE622A33EE633A30EE230A0029A4
:100E000031EE621A00F0CC800A998E1801EB0A03C9
:100E100001EB0905594493ED007AD6ED010AD1EDB5
:100E2000003A77EE202AD5ED014A72EEA35A75EE0C
:100E3000A45A13ED016AD6ED001A51ED016AD5ED01
:100E4000007AC3ED005A11ED018A76EE215A95ED34
:100E5000009A35EE888A38EE098A03ED018A97ED0B
:100E6000028A97ED039A24EE08AA25EE09BA25EE28
:100E7000085A24EE094A35EE444A37EE605A84EDAA
:100E8000034A36EE614A35EE666A33EEE47A36EEB0
:100E9000276A74EE070A66EE091A20EE899A60EE58
:100EA000880A26EE086A3AEE0BAA71EEE00A36EEE0
:100EB000096A84ED02AAC1ED000A01ED016A90ED14
:100EC000046AD0ED050A62EE061A23EE208A23EEAC
:100ED000063A22EE202A33EE422A8CED032A32EE25
:100EE000E32A35EEE63A71EE881A33EE673A32EECF
:100EF000642A0D98CCED021A62EE461A23EE066AB9
:100F000023EE203A22EE202A31EEC33A32EE462A70
:100F1000013886ED013A86ED002A0D909EED062AF5
:100F20009EED073A0C9820EE026A61EE030A21EE6C
:100F3000021A20EE030A083031EE400A37EEE61AB4
:100F4000DDF824E00C9088ED030A37EE440A31EE18
:100F5000451A0B9821EE034A20EE033A20EE020ACE
:100F600036EE206A21EE021A34EE400A183088ED7F
:100F7000026A85ED010A31EE030A089C0B9085EDAB
:100F8000000A069D07980EF1080E08341035083047
:100F9000A9F10809083AABF1080BAAF1080ADBE647
:100FA00097ED026A97ED037A64EE060A65EE071A7A
:100FB00025EE065A24EE074A30EEA16A35EE444A81
:100FC00084ED026A84ED034A90ED044A90ED055ADF
:100FD00022EE046A23EE057A23EE043A22EE052A75
:100FE00036EE074A33EE422A8CED024A8CED032A94
:100FF0009EED062A9EED073A029D20EE024A21EE62
:10100000035A21EE021A20EE030A0A98059A34EEDA
:10101000052A31EE400A2946042388ED022A88ED8C
:10102000030A00F019F8049C00986268294604231A
:1010300000F012F8626801982946042300F00CF8C9
:1010400062680398294604230EB0BDEC088B01B0FA
:10105000BDE8F04FAFF300802DE9F04F81B02DEDEA
:10106000108BA0B0DFED04CA00900430CDE902324D
:101070000190CDE91E1101E0F304353F1F9A4FF0B6
:10108000000AD308DF00A7EBD200C0001D904FEA92
:10109000C20C03EB430503EB8302580106931E01C8
:1010A000019B2C014FEAC20EED00CDE90C0ECDE9FB
:1010B0000A5600BF0A9D191803EB05091D9D03EB95
:1010C0000E0003EB070810ED014A86469A1918191D
:1010D00003EB050B13ED011A11ED012A18ED013A8E
:1010E00012ED017A50ED010A59ED011A5BED012A6A
:1010F00031EE025A33EE046A77EE203A71EEA24ADC
:1011000075EE235A76EE246A75EEA67A43ED017ADF
:1011100075EEE65AD8ED007A9EED008A99ED00BA98
:101120009BED00CAD3ED006A41ED015AD1ED005AA2
:1011300092ED009A90ED00AA37EE88EA7BEE0C8AD9
:1011400036EEA5DA39EE0AFA35EE635A36EE646AFF
:101150007EEE684A7DEE0F9A7DEE4F3A35EE24DA48
:1011600035EE645A7EEE28AA02ED01DA33EEC6DAD5
:1011700000ED015A36EE235A31EE421A33EE442A7C
:1011800037EE603A31EEE24A37EEC86A7BEE4C0A3F
:1011900079EEAABA79EEEA9A72EE441A32EE042A8D
:1011A00036EE604A36EE206AC3ED00BAC1ED009A11
:1011B00082ED00DA80ED005A36EEE55A39EE4A7AD1
:1011C00061EEAC1A22EE2C2A24EE2C4A26EE2C6A72
:1011D00071EE210A73EE022A75EE043A77EE064AA2
:1011E00031EE611A33EE422A35EE443A37EE464A82
:1011F0002646744670EEA45A70EEE40A31EE045AA4
:101200001F9A1E9948ED015A73EEE25A4BED010AFE
:1012100072EEA30A204604ED015A33EE425ADDF87D
:1012200034E0C8ED005ACBED000A84ED005A0C986A
:1012300031EE441A34460B9E924409ED011A32EE07
:10124000031A8A45634489ED001AFFF433AF1F98EF
:101250004028C0F0D4810298009E80B20590069884
:10126000CDE90E4CC0EBC000C00000240125109752
:10127000049000BF0598039B044403EBC40191ED67
:10128000000A03EB04128DED1D0A92ED000A04EB37
:10129000440203EBC2008DED1C0A90ED000A03EB43
:1012A00044118DED1B0A91ED000A04EB8401C80086
:1012B00003EBC1018DED1A0A91ED000A4FEAC20A53
:1012C0004FEA021B03EB02128DED190A92ED000AA0
:1012D000C4EBC4024FEAC40CD10003EBC2028DED93
:1012E000180A92ED000A0CF104024FEA041E1A4497
:1012F0008DED170A92ED000A0EF104021A448DEDED
:10130000160A92ED000A0AF104024FEA44191A443F
:101310008DED150A92ED000A09F104021A448DEDD3
:10132000140A92ED000A043018448DED130A90ED72
:10133000000A0BF1040018448DED120A90ED000A2A
:10134000081D18440994D0ED006A0796B446089524
:101350002B46DDE90C54DDE90A76DDF810808DEDD1
:10136000110A00BF10980E990CEB05090CEB000E4A
:101370000CEB04000CEB060B0CEB010A0CEB070268
:101380000CEB0801DCED027A99ED028A9EED029ADF
:1013900090ED02AA9BED02DA9AED02EA92ED02FAD2
:1013A000D1ED028A37EE88BA39EE0ACA7DEE0E9A7E
:1013B0007FEE28AA7BEE29BAF0EE6C3A7CEE2ACAC0
:1013C0007BEEACDACCED02DA7BEEECBADCED03CAF4
:1013D000D9ED03DADEED03EAD0ED03FA9BED030A63
:1013E0009AED031A92ED032A91ED033A3CEEAD4AD1
:1013F0003EEEAF5A30EE016A32EE037A74EE060A20
:1014000075EE071ADDED1A4ADDED135A70EEA12ACA
:1014100070EEE10ACCED032A64EEAB1A65EEA02A69
:1014200071EEA21A64EEA00A65EEAB2A70EEE20A33
:10143000C9ED021AC9ED030A7BEE690A7CEE6A1A4D
:1014400034EE464A35EE475A9DED1CCADDED154A8D
:1014500030EE856A34EE617A6CEE062A24EE87BAA5
:101460002CEE077A24EE866A30EEC55A31EE844AB5
:10147000DDED180ADDED111A37EE466A8BED036AD1
:1014800020EE856A21EE847A20EE844A21EE855A88
:1014900037EE066A34EE454A39EE4A5A3FEE687A2C
:1014A0007EEEEF1A30EE410A32EE431A7BEE222A2C
:1014B00035EE472A35EE073A31EEC15A31EE811A40
:1014C000CBED022A8AED026A8AED034A37EEC84A5A
:1014D0003DEE4E6A7CEEED0A22EE232A23EE233AFD
:1014E00025EE235A21EE231AF0EE63CA34EE027A77
:1014F00076EE031A70EE852A70EE017ADDED1D3A64
:10150000DDED164A37EE278A32EEE19A23EE88AAFD
:1015100024EE89BA23EE899ADDED173A37EE677A21
:1015200071EEA21A63EE872A66EEA17A63EEA11A23
:1015300026EE877A24EE888A31EEC77A34EE422A84
:1015400036EE433A30EEC54A30EE410ADDED190A77
:10155000DDED121A39EE488A32EE001A34EE435AA3
:101560008EED038A81ED037A20EE816A21EE857A81
:1015700020EE855A21EE811A3AEE0BAA72EEA72AC6
:1015800036EE076A35EE411A8EED02AAC1ED022A47
:1015900080ED026A80ED031A1F9833EE041A0344AB
:1015A0001E989DED1B4A9DED145A32EE400A83426F
:1015B0000F9824EE002A25EE013A24EE011A25EEBA
:1015C000000A32EE032A31EE400A844482ED022AF8
:1015D00082ED030AFFF4C6AE089D0698079E01350A
:1015E000099C854206F10806FFF444AE0298C0004B
:1015F00002901F983F2806981F903FF63FAD20B0FD
:10160000BDEC108B01B0BDE8F08F10B578B14FF490
:1016100000710446FFF7FCF950B94FF48060208256
:101620004EF29C00C0F604006061002000E0FF2044
:1016300040B210BD10B568B140210446FFF7E8F98B
:1016400048B9802020824FF29C00C0F604006061FF
:10165000002000E0FF2040B210BD10B578B14FF47B
:1016600080610446FFF7D4F950B94FF4006020823E
:101670004FF29C20C0F604006061002000E0FF20D3
:1016800040B210BD10B570B180210446FFF7C0F91B
:1016900050B94FF48070208241F29C20C0F60500C2
:1016A0006061002000E0FF2040B210BD10B568B1BD
:1016B00010210446FFF7ACF948B92020208241F2FE
:1016C0009C60C0F605006061002000E0FF2040B291
:1016D00010BD10B578B14FF400610446FFF798F9DA
:1016E00050B94FF48050208241F21C70C0F60500C2
:1016F0006061002000E0FF2040B210BD10B578B15D
:101700004FF480710446FFF783F950B94FF400702D
:10171000208245F21C70C0F605006061002000E0E8
:10172000FF2040B210BD10B568B120210446FFF77C
:101730006FF948B94020208245F61C70C0F60500BC
:101740006061002000E0FF2040B210BDF0B581B024
:1017500014460E46054673B12846314622461F46BA
:1017600000F060F8284621463A46012301B0BDE862
:10177000F040FFF7DDB82846314600220123FFF78D
:10178000D7F828463146224601B0BDE8F04000F0C7
:10179000A3B8B1F5007F0ADA7F2916DC202929D009
:1017A00040293BD141F22771C0F600010847B1F54D
:1017B000006F14DAB1F5007F21D0B1F5806F2DD123
:1017C00041F20B61C0F60001084780291CD0B1F539
:1017D000807F23D141F28561C0F600010847B1F551
:1017E000805F16D0B1F5006F18D141F25B61C0F691
:1017F0000001084741F2AD61C0F60001084741F21F
:10180000FD61C0F60001084741F23561C0F60001F4
:10181000084741F2D361C0F6000108474FF0FF309E
:101820007047000080B591ED001A91ED012AD0F8C3
:1018300014E0008831EE023AB6EE000A31EE421AA8
:10184000B0F1010C23EE003A21EE001A82ED003ACD
:1018500082ED011A08BF80BD01F1080301EBCC0144
:101860000EF108000832043111ED011A91ED002A41
:1018700093ED003A93ED014A90ED005A90ED016A24
:1018800033EE417A72EE040A67EE051A60EE862A9C
:1018900027EE066A31EE031A34EE422A25EE205A6C
:1018A00031EE611A32EE062A31EE621A32EE452A24
:1018B00021EE001A22EE002A82ED001A82ED012AA2
:1018C000BCF1010C03F1080300F1080002F1080269
:1018D000A1F10801C8D180BD91ED000A91ED011A76
:1018E0000388406930EE002A31EE011AA3F1010CA1
:1018F00032EE013AB6EE000A32EE411A23EE003A19
:1019000021EE001A00F1080301F1080001EBCC01FF
:1019100082ED003A82ED011A0832043111ED011A0C
:1019200090ED003A91ED002A90ED014A93ED005AB6
:1019300093ED016A31EE437A72EE040A67EE051AFE
:1019400027EE067A31EE031A34EE422A25EE205AAB
:1019500020EE866A31EE211A32EE072A31EE061A9F
:1019600032EE452A21EE001A22EE002A82ED001AFC
:1019700082ED012ABCF1010C03F1080300F108001B
:1019800002F10802A1F10801C8D1704700BFFEE7CB
:101990007047000070B504461D460023B5F5804F22
:1019A00013D154F822300C480340D1E9000640EA34
:1019B00006108E6840EA06208E8940EA06408E694D
:1019C0003043034344F8223003E06FF0704044F8A2
:1019D0002200002070BD00000000F0CF10B50346CB
:1019E0000022086853F8202012480240D1E901047F
:1019F0002043CC6820430C6920434C6920438C6908
:101A00002043CC6920430C6A20434C6A20438C6AF3
:101A10002043CC6A2043CC6B20430C6B2043024311
:101A20008868082801D142F04002086843F8202065
:101A3000002010BD8000F0FF30B503460024501C8C
:101A400053F8204004F04044D1E9000540EA051075
:101A50008D6840EA05208D8940EA0545088A401EC8
:101A600045EA0055087D801E45EA00608D692843DF
:101A70000443501C43F82040002030BD70B504469C
:101A8000A56D00F08BF9064694F83500022808D0C1
:101A90008020606500BF002084F8340000BF012072
:101AA00070BD2068006820F016002168086020687A
:101AB000406920F0800021684861206C08B9A06C62
:101AC00028B12068006820F00800216808602068BC
:101AD000006820F00100216808600FE000F05EF966
:101AE000801B05280AD92020606500BF002084F8EB
:101AF000340000BF032084F83500D1E72068006877
:101B000000F001000028E9D194F85C103F208840E3
:101B1000A86000BF002084F8340000BF012084F8D2
:101B200035000020BCE7014691F83500022803D0BB
:101B30008020486501207047052081F8350008683D
:101B4000006820F001000A6810600020F3E710B57B
:101B50000446A0B205F0C0F910BD0000F8B5024679
:101B60000B460025002400200021DEE0012606FAB5
:101B700001F51E6806EA0504AC4275D11E7906F02F
:101B80000306012E04D01E7906F00306022E13D19F
:101B900090684F000326BE40B0434F00DE68BE4051
:101BA00030439060506801268E40B0431E79C6F3E2
:101BB00000168E40304350601E7906F00306032E57
:101BC00009D0D0684F000326BE40B0434F009E6846
:101BD000BE403043D0601E7906F00306022E13D1BA
:101BE000CF0802F1200656F827004E07F70E0F2601
:101BF000BE40B0434F07FF0E1E69BE403043CF08C2
:101C000002F1200646F8270010684F000326BE4068
:101C1000B0431E7906F003064F00BE40304310600B
:101C20005E6806F08056B6F1805F7DD100BF002669
:101C30000096404E366846F480463E4F3E603E4633
:101C4000366806F48046009600BF00BF3A4E8F0803
:101C500056F827008E07370F0F26BE40B043374E89
:101C6000B24202D1002624E05EE0354EB24201D1FC
:101C700001261EE0334EB24201D1022619E0324E57
:101C8000B24201D1032614E0304EB24201D1042603
:101C90000FE02F4EB24201D105260AE02D4EB2428E
:101CA00001D1062605E02C4EB24201D1072600E004
:101CB00008268F073F0FBE4030431F4E8F0846F85F
:101CC0002700264E3068A0435E6806F48036B6F5DD
:101CD000803F00D12043214E3060361D3068A04344
:101CE0005E6806F40036B6F5003F00D120431B4E77
:101CF000361D3060361D3068A0435E6806F48016DD
:101D0000B6F5801F00D12043144E08363060361DD2
:101D10003068A0435E6806F40016B6F5001F00D1D7
:101D200020430E4E0C363060491C1029FFF41EAFC4
:101D3000F8BD00004438024008380140000002406D
:101D40000004024000080240000C02400010024063
:101D50000014024000180240001C0240003C0140F8
:101D6000024613690B400BB1012000E000207047D0
:101D700010B5426921EA020302EA010443EA04437E
:101D8000836110BD0AB1816101E00B04836170477A
:101D900001480068000C7047002004E0014800681A
:101DA000704700004000002003480068034909789C
:101DB00008440149086070474000002048000020A6
:101DC00010B50A48006840F40070084908600846E9
:101DD000006840F480600860052000F07FF80F2064
:101DE00000F006F800F02AF8002010BD003C024088
:101DF00070B504460E4800784FF47A71B1FBF0F0EC
:101E00000C490968B1FBF0F5284601F067FB08B101
:101E1000012070BD102C07D200222146501E00F078
:101E20001EF80548046001E00120F2E70020F0E719
:101E30004800002030000020440000207047014688
:101E40000846002809DB00F01F0301229A404309DD
:101E50009B0003F1E023C3F8002100BF70472DE988
:101E6000F05F80460D461646002703F0BDF8074692
:101E700039462A46334601F00700C0F1070ABAF195
:101E8000040F02D94FF0040A01E0C0F1070AD1465D
:101E900000F1040ABAF1070F02D24FF0000A01E084
:101EA000A0F1030AD4464FF0010A0AFA09FAAAF18E
:101EB000010A0AEA020A0AFA0CFA4FF0010B0BFABD
:101EC0000CFBABF1010B0BEA030B4AEA0B042146B6
:101ED000404603F091F8BDE8F09F000000BF00F01D
:101EE0000702064B19684FF6FF031940044B0B43DA
:101EF00043EA0221014B196000BF70470CED00E07E
:101F00000000FA0570B504460D460CB9012070BDFD
:101F10005848006800F00700A84209D255490D70E2
:101F20000846006800F00700A84201D00120EEE753
:101F3000207800F0020002281DD1207800F0040073
:101F4000042805D14C48006840F4E0504A49086034
:101F5000207800F00800082805D14748006840F4C0
:101F60006040454908604448006820F0F000A168DE
:101F7000084341490860207800F00100A8B3606878
:101F8000012807D13C4808380068C0F34040B8B980
:101F90000120BCE76068022802D06068032807D1EE
:101FA000354808380068C0F3406048B90120AEE702
:101FB000314808380068C0F3400008B90120A6E79E
:101FC0002D48006820F00300616808432A49086032
:101FD000FFF7E4FE064609E0FFF7E0FE801B41F252
:101FE0008831884202D9032091E707E0224800683F
:101FF00000F00C006168B0EB810FEDD11D48006866
:1020000000F00700A84209D91A490D700846006877
:1020100000F00700A84201D0012078E7207800F006
:102020000400042807D11448006820F4E050E16857
:10203000084311490860207800F00800082808D1FA
:102040000D48006820F46040216940EAC1000A4957
:10205000086000F03FF808490968C1F30311074A16
:10206000515CC8400649086006480068FFF7C0FE9A
:1020700000204CE7003C0240083802408ADB0008A0
:102080003000002044000020014800687047000034
:102090003000002000B5FFF7F7FF04490968C1F3DD
:1020A0008221034A515CC84000BD0000083802404C
:1020B0009ADB000800B5FFF7E7FF04490968C1F3A0
:1020C0004231034A515CC84000BD0000083802405C
:1020D0009ADB00082DE9F047002400250026A146E0
:1020E0002548006800F00C0020B1042805D008281D
:1020F0003AD105E0DFF8849039E0DFF8849036E0EB
:102100001D48001F006800F03F041B48001F0068C6
:1021100000F4800078B11A481749091F0968C1F313
:102120008811A0FB01700146224600233846FEF7C5
:102130004FF805460EE011480F49091F0968C1F321
:102140008811A0FB01700146224600233846FEF7A5
:102150003FF805460848001F0068C0F30140401CD6
:102160004600B5FBF6F902E0DFF8109000BF00BFB3
:102170004846BDE8F0870000083802400024F4001B
:1021800000127A00F8B504460CB90120F8BD207899
:1021900000F00100002874D0F948006800F00C003D
:1021A00004280DD0F648006800F00C00082813D170
:1021B000F348001F006800F48000B0F5800F0BD1D9
:1021C000EF4808380068C0F34040002859D06068E4
:1021D000002856D10120D9E700BF6068B0F5803FE4
:1021E00008D1E7480838006840F48030E4490839ED
:1021F00008601EE06068B0F5A02F0DD1E0480838F7
:10220000006840F48020DE4908390860084600680C
:1022100040F4803008600CE0D9480838006820F4A9
:102220008030D749083908600846006820F48020CB
:10223000086000BF606890B1FFF7B0FD054606E09A
:10224000FFF7ACFD401B642801D903209EE7CC4872
:1022500008380068C0F340400028F1D011E0FFF7D3
:102260009DFD054606E0FFF799FD401B642801D956
:1022700003208BE7C24808380068C0F340400028BC
:10228000F1D1207800F0020002285FD1BC4800683C
:1022900000F00C0058B1BA48006800F00C000828A3
:1022A0001CD1B748001F006800F48000B0B9B448E2
:1022B00008380068C0F3400020B1E068012801D070
:1022C000012063E7AE480838006820F0F800216973
:1022D00040EAC100AA490839086037E0E06800B365
:1022E0000120A8490860FFF759FD054606E0FFF701
:1022F00055FD401B022801D9032047E7A0480838B4
:102300000068C0F340000028F1D09D4808380068FC
:1023100020F0F800216940EAC100994908390860B5
:1023200014E0002097490860FFF738FD054606E0F5
:10233000FFF734FD401B022801D9032026E790480F
:1023400008380068C0F340000028F1D1207800F080
:10235000080008282CD16069A8B101208A490860CA
:10236000FFF71CFD054606E0FFF718FD401B02289D
:1023700001D903200AE782486C300068C0F34000AE
:102380000028F1D014E000207F490860FFF706FD27
:10239000054606E0FFF702FD401B022801D9032095
:1023A000F4E677486C300068C0F340000028F1D1B3
:1023B000207800F00400042870D1002770483830DD
:1023C000006800F0805090B900BF002000906C4879
:1023D0003830006840F0805069493831086008465C
:1023E000006800F08050009000BF00BF01276748E0
:1023F000006800F48070B0B96448006840F48070F0
:1024000062490860FFF7CAFC054606E0FFF7C6FC14
:10241000401B022801D90320B8E65C48006800F49C
:1024200080700028F2D000BFA068012808D154486D
:102430006830006840F001005149683108601DE0D3
:10244000A06805280DD14E486830006840F00400AF
:102450004B49683108600846006840F00100086098
:102460000CE047486830006820F0010044496831BA
:1024700008600846006820F00400086000BFA068FB
:10248000A8B1FFF78BFC054609E0FFF787FC401B6E
:1024900041F28831884202D9032077E626E03848A5
:1024A00068300068C0F340000028EED013E0FFF76A
:1024B00075FC054608E0FFF771FC401B41F28831CE
:1024C000884201D9032061E62D4868300068C0F3D6
:1024D00040000028EFD1012F07D12948383000688B
:1024E00020F0805026493831086000BFA0690028DC
:1024F00045D02348006800F00C0008285DD0A06992
:10250000022845D100201F490866FFF747FC054611
:1025100006E0FFF743FC401B022801D9032035E603
:10252000174808380068C0F340600028F1D1D4E9AA
:1025300007010843616A40EA81110122A06AC2EBE7
:10254000500041EA00412C20005D41EA00600C4946
:10255000091F086001200B490866FFF71FFC0546AC
:1025600006E0FFF71BFC401B022801D903200DE603
:10257000034808380068C0F340600028F1D049E003
:102580000838024000004742800E47420070004079
:10259000002021490866FFF701FC054606E0FFF729
:1025A000FDFB401B022801D90320EFE51B48006812
:1025B000C0F340600028F2D12CE0A069012800D1CE
:1025C000E4E51648001D0668A069012820D006F43D
:1025D0008001E06981421BD106F03F01206A8142FF
:1025E00016D147F6C0703040616AB0EB811F0FD141
:1025F00006F440310122A06AC2EB5000B1EB004F5B
:1026000006D106F070612C20005DB1EB006F01D0A7
:102610000120BBE50020B9E5000047420038024038
:10262000F0B589B004460E460027032084F8340034
:10263000606C032820D0B6F5805F04D1A06B40F019
:102640008050A0631CE0B6F5006F07D1204602F071
:1026500023F90546A06B2843A06311E03EB920464C
:1026600002F0E6F80546A06B2843A06308E0A06BE3
:1026700040F00060A06303E0A06B40F08050A063D6
:10268000A06B38B1174821688863012084F83400B2
:10269000012713E060680390A0680490E06805904B
:1026A000069660690790A069089006A807C88DE89B
:1026B0000700206803A90EC901F01EFB4FF400714A
:1026C000206801F095FB054635B10648216888630E
:1026D000A06B2843A0630127012084F8340038460A
:1026E00009B0F0BDFF05400010B50246506E800FE6
:1026F0000870506EC0F383604870506EC0F3016084
:102700008870506E000CC870B2F86400000A08713E
:1027100092F864004871906E000DC880906EC0F30E
:10272000034008726820805AC0F3C03048726820A5
:10273000805AC0F3803088726820805AC0F34030DD
:10274000C8726820805AC0F30030087300204873B4
:10275000506C002836D16820805A8005030DD06E59
:1027600043EA90700861D06EC0F3C2600875D06E05
:10277000C0F302604875D06EC0F342508875D06EC9
:10278000C0F38240C875D06EC0F3C23008760869C5
:10279000401C50650B7E506D03F007039B1C012409
:1027A0009C4060435065087A00F00F030120984078
:1027B0009065D2E915035B0A5843D0654FF4007366
:1027C000136621E0506C012813D16820805C8006DC
:1027D000830AD06E43EA104008610869401C8302F6
:1027E0005365536DD3654FF400739365936D136612
:1027F0000AE02E4813689863906B40F08050906315
:10280000012082F8340010BD6C20805AC0F3803063
:1028100001F8190F6C20805AC0F3C61048706C2064
:10282000805C00F07F008870106FC00FC870106F60
:10283000C0F341700871106FC0F382604871106F6F
:10284000C0F383508871106FC0F34050C8710020EE
:102850000872106FC0F3004048727020805AC0F3B5
:10286000C03088727020805AC0F38030C8727020E7
:10287000805AC0F3403008737020805AC0F3003093
:1028800048737020805AC0F3812088737020805A6A
:10289000C0F30120C8737020805CC0F34600087448
:1028A0000120487419390020ADE70000FF05400001
:1028B0000246506C0860906C4860D06C8860106D67
:1028C000C860506D0861906D4861D06D8861106E70
:1028D000C86100207047F8B50446002000906946A2
:1028E000204601F08DFF054615B1A06B2843A0637B
:1028F0000098C0F343263046F8BD10B504460CB925
:10290000012010BD94F8340020B900202077204623
:1029100000F068F8032084F83400204600F00CF83A
:1029200008B10120EDE70020A0632063012084F8B6
:1029300034000020E5E7000070B58AB004460020AE
:10294000049005900690079008907620099007A8BB
:1029500007C88DE80700206804A90EC901F0CCF96A
:10296000064616B101200AB070BD00201B49086060
:10297000206801F0DBF901201849A039C1F8A00056
:10298000204601F0D7FE05463DB1012084F8340011
:10299000A06B2843A0630120E5E7204601F049FE33
:1029A00005463DB1012084F83400A06B2843A063A4
:1029B0000120D8E74FF40071206801F019FA0546AC
:1029C0004DB1074821688863A06B2843A0630120AC
:1029D00084F83400C7E70020C5E70000A080254246
:1029E000FF05400010B586B0044600BF00200090EF
:1029F0005348006840F40060514908600846006888
:102A000000F40060009000BF00BF00BF00BF0020C6
:102A100000904B481438006840F0040048491439CD
:102A200008600846006800F00400009000BF00BF86
:102A300000BF00BF00BF002000900846006840F0C3
:102A4000040008600846006800F00400009000BF21
:102A500000BF00BF00BF00BF002000900846006814
:102A600040F0040008600846006800F00400009090
:102A700000BF00BF00BF00BF00BF0020009008469D
:102A8000006840F0040008600846006800F0040098
:102A9000009000BF00BF00BF00BF00BF002000903B
:102AA0000846006840F0040008600846006800F02E
:102AB0000400009000BF00BF00BF00BF00BF0020A7
:102AC00000900846006840F008000860084600686A
:102AD00000F00800009000BF00BF00BF8815019003
:102AE0000220029001200390022004900C20059007
:102AF00001A91448FFF732F84FF40070019001A9C2
:102B00001048FFF72BF84FF48060019001A90D48A1
:102B1000FFF724F84FF40060019001A90948FFF77E
:102B20001DF84FF48050019001A90648FFF716F8F0
:102B30000420019001A90448FFF710F806B010BD69
:102B40004438024000080240000C02402DE9FF4FCB
:102B500089B004468B469946DDF858A0FFF71EF968
:102B600002900B9800905D46BBF1000F07D1A06B5F
:102B700040F00060A06301200DB0BDE8F08F94F834
:102B8000340001287ED10020A063009800EB0901E9
:102B9000E06D814205D9A06B40F00070A063012078
:102BA000EAE7032084F8340000202168C862606CE2
:102BB000012802D00098400200904FF0FF300390AF
:102BC0004FEA4920049090200590022006900020B2
:102BD00007900120089003A9206801F068F8B9F176
:102BE000010F07D9022020632068009901F068F9DD
:102BF000804606E0012020632068009901F07CF9FE
:102C00008046B8F1000F0DD0754821688863A06B2D
:102C100040EA0800A063012084F83400002020630B
:102C20000120A9E7049E3AE02068406B00F40040D0
:102C3000E0B1DEB10020019015E0206801F07FF8DE
:102C400007462F706D1C761E380A28706D1C761E84
:102C5000380C28706D1C761E380E28706D1C761E80
:102C60000198401C019001980828E6D3FFF796F8D8
:102C70000299401A504502D2BAF1000F0FD15848BC
:102C8000216800E0A6E08863A06B40F00040A063EC
:102C9000012084F834000020206303206CE72068C2
:102CA000406B40F22A3108400028BDD02068406BBC
:102CB00000F48070D0B1B9F1010F17D9606C03280E
:102CC00014D0206801F0D8F98046B8F1000F0DD07B
:102CD000434821688863A06B40EA0800A063012094
:102CE00084F8340000202063012045E72068406B11
:102CF00000F0080068B13A4821688863A06B40F092
:102D00000800A063012084F8340000202063012023
:102D100032E72068406B00F0020068B1304821685B
:102D20008863A06B40F00200A063012084F83400A7
:102D30000020206301201FE72068406B00F0200086
:102D400068B1274821688863A06B40F02000A06329
:102D5000012084F834000020206301200CE729E0E2
:102D6000206800F0ECFF07462F706D1C761E380AB5
:102D700028706D1C761E380C28706D1C761E380E5F
:102D800028706D1C761EFFF709F80299401A50450D
:102D900002D2BAF1000F0DD1114821688863A06BEF
:102DA00040F00040A063012084F83400002020633C
:102DB0000120E1E62068406B00F4001008B1002E0D
:102DC000CED140F23A5021688863012084F8340063
:102DD0000020D1E6A06B40F00050A0630120CBE6BC
:102DE000FF0540002DE9F04F89B00446894693461F
:102DF0009846FEF7D3FF0290DA464D46B9F1000F30
:102E000007D1A06B40F00060A063012009B0BDE8CD
:102E1000F08F94F8340001287ED10020A0630AEBE3
:102E20000801E06D814205D9A06B40F00070A063FD
:102E30000120EBE7032084F8340000202168C862F9
:102E4000606C012801D04FEA4A2A4FF0FF3003900E
:102E50004FEA4820049090200590002006900790AB
:102E60000120089003A9206800F021FFB8F1010FAC
:102E700007D9202020635146206801F01BF906463F
:102E800006E0102020635146206801F02FF9064625
:102E900066B15F4821688863A06B3043A06301205E
:102EA00084F83400002020630120AFE7049F43E052
:102EB0002068406B00F4804030B32FB300200190B5
:102EC0001FE0287800906D1C7F1E2878009941EA49
:102ED000002000906D1C7F1E2878009941EA004078
:102EE00000906D1C7F1E2878009941EA00600090D8
:102EF0006D1C7F1E6946206800F039FF0198401C58
:102F0000019001980828DCD3FEF748FF0299411A86
:102F10001298814203D200E074E0129860B93C48F4
:102F200021688863A06B3043A063012084F83400DB
:102F300000202063032069E72068406B40F21A31CB
:102F400008400028B4D02068406B00F48070B8B10D
:102F5000B8F1010F14D9606C032811D0206801F07A
:102F60008BF8064666B12A4821688863A06B304317
:102F7000A063012084F8340000202063012045E78D
:102F80002068406B00F0080068B121482168886320
:102F9000A06B40F00800A063012084F834000020FA
:102FA0002063012032E72068406B00F0020068B126
:102FB000174821688863A06B40F00200A0630120DD
:102FC00084F834000020206301201FE72068406B54
:102FD00000F0100068B10E4821688863A06B40F0D3
:102FE0001000A063012084F8340000202063012039
:102FF0000CE740F23A5021688863012084F83400DD
:10300000002003E7A06B40F00050A0630120FDE624
:10301000FF05400010B504460CB9012010BD606AE0
:1030200038B96068B0F5827F00D105E00021E16128
:1030300002E0002121616161A06AB0F5005F00D16A
:1030400000BF94F8510028B9002084F850002046B1
:1030500000F050F8022084F851002068006820F049
:10306000400021680860A08800F48270218901F482
:1030700004410843A18901F400610843217C01F067
:1030800002010843217D01F001010843218B01F475
:1030900000710843217F01F0380108432021095DB8
:1030A00001F080010843218D01F40051084321689B
:1030B00008600421A06901EA104094F8241001F08E
:1030C0001001084321684860A06AB0F5005F03D191
:1030D000A08D80B2216808612068C06920F400607A
:1030E0002168C86100206065012084F8510000203B
:1030F00094E7000010B586B004462A49206888424B
:103100004DD100BF00BF002000902748006840F06C
:103110000200254908600846006800F0020000909F
:1031200000BF00BF00BF00BF00BF002000900846E6
:10313000006840F0020008600846006800F00200E5
:10314000009000BF00BF00BF00BF00BF0020009084
:103150000846006840F0020008600846006800F079
:103160000200009000BF00BF00BF082001900220B5
:10317000029001200390022004900520059001A9EF
:103180000A48FEF7EBFC1020019001A90748FEF762
:10319000E5FC2020019001A90448FEF7DFFC06B001
:1031A00010BD0000003001403038024000040240F1
:1031B0002DE9F04F85B00446884691461D460E9E87
:1031C00000200490012002900020019000BF94F89C
:1031D0005000012803D1022005B0BDE8F08F012086
:1031E00084F8500000BFFEF7D9FD074694F851B0AF
:1031F00060680390AA46BBF1010F0BD00398B0F5AD
:10320000827F04D1A06810B9BBF1040F02D0022064
:1032100001902CE1B8F1000F03D0B9F1000F00D0FC
:1032200015B90120019022E194F85100042802D040
:10323000052084F8510000206065C4F83890E587C7
:10324000A587C4F83080E586A58620646064A06AFE
:10325000B0F5005F0DD100BF2068006820F4005079
:10326000216808602068006840F400502168086008
:1032700000BF2068006800F04000402805D02068AA
:10328000006840F0400021680860E068B0F5006F19
:1032900056D1606810B1BAF1010F09D1206B0088D6
:1032A0002168C860206B801C2063E08E401EE08691
:1032B0003FE02068806800F0020002281CD1E08E08
:1032C000D0B10298012817D1206B00882168C8600E
:1032D000206B801C2063E08E401EE0860020029060
:1032E000E08E48B9A06AB0F5005F05D1206800689B
:1032F00040F48050216808602068806800F0010078
:1033000068B1E08F58B12068C068A16B0880A06BDD
:10331000801CA063E08F401EE08701200290FEF732
:103320003DFDC01BB04204D3701C10B103200190BE
:103330009DE0E08E0028BCD1E08F0028B9D156E096
:10334000606810B1BAF1010F09D1206B00782168D3
:103350000873206B401C2063E08E401EE08640E036
:103360002068806800F0020002281CD1E08ED0B1F5
:103370000298012817D1206B007821680873206B10
:10338000401C2063E08E401EE08600200290E08E0C
:1033900048B9A06AB0F5005F05D12068006840F424
:1033A0008050216808602068806800F0010068B1E2
:1033B000E08F58B12068C068A16B0870A06B401CFA
:1033C000A063E08F401EE08701200290FEF7E6FC3C
:1033D000C01BB04201D3701C00B916B90320019084
:1033E00045E0E08E0028BBD1E08F0028B8D1A06A6C
:1033F000B0F5005F12D133460122114620460097F6
:1034000001F0B4FA30B1606D40F002006065032055
:1034100001902CE02068C068049000BF206880689C
:1034200000F01000102809D1606D40F002006065C6
:103430004FF6EF7021688860012001903A463146CE
:10344000204601F05DFA20B1012001902020606546
:103450000DE0A06850B900BF002000902068C0684F
:10346000009020688068009000BF00BF00BF01206E
:1034700084F8510000BF002084F8500000BF01987C
:10348000AAE670B504460E4615460CB9012070BD7B
:1034900094F8490028B9002084F84800204600F03C
:1034A0001CF804F108012068FEF798FA3146A2687A
:1034B0002068FEF7C1FA2946236BD4E90102FEF722
:1034C00069FAA168206850F8210040F00100A26864
:1034D000216841F822000020D9E7704770B5044602
:1034E0002546681EB0F1807F01D301200FE0681EE1
:1034F0004FF0E02148610F214FF0FF3001F07CFDDB
:1035000000204FF0E021886107200861002070BD95
:103510007047704710B504460CB9012010BD94F8EF
:103520003D0028B9002084F83C00204600F025F832
:10353000022084F83D00211D206801F0BDFA012021
:1035400084F8460000BF84F83E0001213F20015569
:10355000402001554120015500BF00BF012084F8E3
:10356000420043200155442001554520015500BF2C
:10357000012084F83D000020D0E77047014691F813
:103580003D00012801D001207047022081F83D0054
:103590000868C06840F001000B68D8601A4B0868E2
:1035A00098421BD00868B0F1804F17D0174B0868BD
:1035B000984213D0164B086898420FD0154B0868F4
:1035C00098420BD0144B0868984207D0134B0868F8
:1035D000984203D0124B086898420CD10868806862
:1035E00000F00702062A0CD00868006840F00100CD
:1035F0000B68186005E00868006840F001000B687F
:1036000018600020C0E700000000014000040040F6
:1036100000080040000C0040000401400040014050
:103620000018004001460868C06820F001000A68E0
:10363000D06000BF0868006A41F21112104050B912
:103640000868006A9210104028B90868006820F0E5
:1036500001000A68106000BF012081F83D000020D1
:103660007047704710B5044620680069C0F34000F9
:10367000D8B12068C068C0F34000B0B16FF002005C
:1036800021680861012020772068806900F003002C
:1036900018B12046FFF7E5FF05E0204600F0ADF841
:1036A000204600F0ABF80020207720680069C0F3C6
:1036B0008000D8B12068C068C0F38000B0B16FF05E
:1036C000040021680861022020772068806900F4E6
:1036D000407018B12046FFF7C4FF05E0204600F017
:1036E0008CF8204600F08AF80020207720680069D6
:1036F000C0F3C000D8B12068C068C0F3C000B0B14A
:103700006FF0080021680861042020772068C069F4
:1037100000F0030018B12046FFF7A3FF05E02046A4
:1037200000F06BF8204600F069F800202077206850
:103730000069C0F30010D8B12068C068C0F3001061
:10374000B0B16FF010002168086108202077206870
:10375000C06900F4407018B12046FFF782FF05E011
:10376000204600F04AF8204600F048F80020207774
:103770002068006900F0010058B12068C06800F0BE
:10378000010030B16FF0010021680861204600F0AF
:1037900037F820680069C0F3C01058B12068C068CD
:1037A000C0F3C01030B16FF080002168086120467E
:1037B000FFF7AEFE20680069C0F3801058B12068A2
:1037C000C068C0F3801030B16FF04000216808611C
:1037D000204600F029F820680069C0F3401058B175
:1037E0002068C068C0F3401030B16FF0200021683D
:1037F00008612046FFF78DFE10BD7047704700003E
:1038000010B504460648844208D100BF4FF48061D9
:103810000448FEF7ADFA00BF08F0C4FE10BD00007A
:103820008C1C002000140240704770477047000055
:103830002DE9F84F0446206805682068C6682068AE
:1038400047694FF00009CA4605F00F09B9F1000FAA
:103850000AD105F0200038B106F0200020B1204642
:1038600001F0CBF9BDE8F88FB9F1000F72D007F085
:10387000010018B906F4907000286BD005F0010023
:1038800030B106F4807018B1206C40F00100206463
:1038900005F0040030B107F0010018B1206C40F0D1
:1038A0000200206405F0020030B107F0010018B1F9
:1038B000206C40F00400206405F0080048B106F0D8
:1038C000200010B907F0010018B1206C40F008008A
:1038D0002064206C70B305F0200028B106F02000B1
:1038E00010B1204601F089F920684069C0F3801AC0
:1038F000206C00F0080010B9BAF1000F23D0204668
:1039000001F050F92068406900F04000402816D1CD
:103910002068406920F0400021684861A06B50B1E8
:103920005648A16B0865A06BFEF7FDF810B1A06BBF
:10393000016D88470CE02046FFF778FF08E020463D
:10394000FFF774FF04E02046FFF770FF00202064BB
:1039500088E7FFE7206B012879D105F010000028E7
:1039600075D006F01000002871D000BF0020009034
:1039700020680068009020684068009000BF00BF89
:103980002068406900F04000402839D1A06B0068F1
:1039900040681FFA80F8B8F1000F30D0A08D404584
:1039A0002DDDA4F82E80A06BC069B0F5807F1FD0FC
:1039B0002068C06820F480702168C8602068406971
:1039C00020F00100216848612068406920F0400033
:1039D00021684861202084F83E0000202063206890
:1039E000C06820F010002168C860A06BFEF746F8A0
:1039F000A08DE28D801A81B22046FFF716FF31E7D5
:103A0000A08DE18D401A1FFA80F8E08DE8B1B8F181
:103A1000000F1AD02068C06820F490702168C86038
:103A20002068406920F0010021684861202084F866
:103A30003E00002020632068C06820F0100021684C
:103A4000C86041462046FFF7F0FE0BE7FFE705F0B0
:103A5000800030B106F0800018B1204601F065FA10
:103A600000E705F0400030B106F0400018B12046F4
:103A700001F0B3F8F6E600BFF4E60000914B000851
:103A800010B504460CB9012010BDA06900B100E0DA
:103A900000BF94F83D0028B9002084F83C0020467F
:103AA00000F028F8242084F83D002068C06820F445
:103AB00000502168C860204601F0FEF820680069C7
:103AC00020F49040216808612068406920F02A00B5
:103AD000216848612068C06840F400502168C860CF
:103AE00000202064202084F83D0084F83E0000205F
:103AF000CAE7000010B586B004462E492068884207
:103B000055D100BF00BF002000902B48006840F056
:103B10001000294908600846006800F01000009075
:103B200000BF00BF00BF00BF00BF002000902248C0
:103B30001438006840F001001F4914390860084635
:103B4000006800F00100009000BF00BF00BF00BF90
:103B500000BF002000900846006840F001000860A7
:103B60000846006800F00100009000BF00BF00BFE1
:103B70004815019002200290012003900220049039
:103B80000720059001A90D48FDF7E8FF4FF480607C
:103B900001900720059001A90848FDF7DFFF2520C7
:103BA000FEF74DF9032211462520FEF758F906B01D
:103BB00010BD0000001001404438024000000240E7
:103BC00070B504460D46164694F83E00202816D1DE
:103BD00005B10EB9012070BD00BF94F83C0001286A
:103BE00001D10220F7E7012084F83C0000BF00204B
:103BF000206332462946204601F074F9EBE70220A3
:103C0000E9E7000010B504462049206888423BD10E
:103C10001F48008800F4004088BB1D48008800F45D
:103C2000804070B11B4800780A2803D00020184952
:103C3000088024E01648008840F4004014490880B9
:103C40001DE0144800780D2806D11148008840F482
:103C500080400F49088012E00E4800780C4909881E
:103C6000C1F30D010C4A505409480088401C084912
:103C7000088008460088C72801DD0020088001224E
:103C800004490648FFF79CFF10BD000000100140EA
:103C90003C0000203E000020340A0020FC0A0020E6
:103CA000704700BFFEE700BFFEE77047704710B5E2
:103CB000024600230868506248689062D1E9020415
:103CC00020430C6920434C6920430343D06A20F011
:103CD000F7001843D062002010BD01460869C0B249
:103CE00070470146086800F003007047024602F181
:103CF00014004318186870470FB410B5044600212B
:103D0000DDE903021043059A1043069A1043079A0F
:103D10001043089A10430143606847F6FF629043DE
:103D200008436060002010BC5DF814FB10B5044629
:103D3000032020600220FDF70AFF002010BD01468D
:103D4000D1F88000704710B50246002308689060E3
:103D5000D1E901042043CC6820430C69204303438C
:103D6000D0686FF30B001843D060002010BD0246EE
:103D70000868C2F880000020704770B586B005461C
:103D80000C460194372002904020039000200490BC
:103D90004FF48060059001A92846FFF7D4FF41F257
:103DA00088323721284600F0DDF90646304606B055
:103DB00070BD000070B586B005460C460B48204328
:103DC00001902920029040200390002004904FF49D
:103DD0008060059001A92846FFF7B5FF284600F04E
:103DE000C9FA0646304606B070BD000000001080DB
:103DF00070B586B005460C46019410200290402014
:103E00000390002004904FF48060059001A928469B
:103E1000FFF799FF41F288321021284600F0A2F9FD
:103E20000646304606B070BD70B586B005460C46F5
:103E300001940620029040200390002004904FF44B
:103E40008060059001A92846FFF77DFF41F2883286
:103E50000621284600F086F90646304606B070BDB9
:103E600030B585B004460020009001900290039088
:103E70004FF48060049069462046FFF764FF2046B7
:103E800000F050F90546284605B030BD30B585B084
:103E900004464FF4D5700090082001904020029015
:103EA000002003904FF48060049069462046FFF79D
:103EB0004AFF204600F0E6FA0546284605B030BD28
:103EC00070B586B005460C46019412200290402041
:103ED0000390002004904FF48060059001A92846CB
:103EE000FFF731FF41F288321221284600F03AF9FB
:103EF0000646304606B070BD70B586B005460C4625
:103F000001941120029040200390002004904FF46F
:103F10008060059001A92846FFF715FF41F288321D
:103F20001121284600F01EF90646304606B070BD45
:103F3000F0B585B0064614461D4600940720019052
:103F400040200290002003904FF480600490694666
:103F50003046FFF7F8FE41F288320721304600F084
:103F600001F90746384605B0F0BD30B585B00446C6
:103F70000020009002200190C020029000200390B9
:103F80004FF48060049069462046FFF7DCFE20462F
:103F900000F0BEF90546284605B030BD70B586B0C4
:103FA00005460C46019409200290C0200390002091
:103FB00004904FF48060059001A92846FFF7C3FEE6
:103FC000284600F0A5F90646304606B070BD30B56B
:103FD00085B00446002000903320019040200290DC
:103FE000002003904FF48060049069462046FFF75C
:103FF000AAFE41F288323321204600F0B3F805468C
:10400000284605B030BD70B586B005460C46019413
:104010000D20029040200390002004904FF4806017
:10402000059001A92846FFF78EFE41F288320D2146
:10403000284600F097F80646304606B070BD70B5C9
:1040400086B005460C4600200190032002904020D7
:104050000390002004904FF48060059001A9284649
:10406000FFF771FE22460321284600F0AFF906460D
:10407000304606B070BD000030B585B00446002063
:1040800000900C20019040200290002003904FF4FB
:104090008060049069462046FFF755FE044A0C21D3
:1040A000204600F05FF80546284605B030BD000008
:1040B00000E1F50570B586B005460C46019419205F
:1040C000029040200390002004904FF480600590FF
:1040D00001A92846FFF737FE41F288321921284608
:1040E00000F040F80646304606B070BD70B586B0A8
:1040F00005460C46019418200290402003900020B1
:1041000004904FF48060059001A92846FFF71BFE3C
:1041100041F288321821284600F024F8064630463D
:1041200006B070BD01460E480068C0084FF47A73AF
:10413000B0FBF3F041F2883300FB03F200BF101E26
:10414000A2F1010202D14FF000407047486B00F02D
:1041500080000028F3D0C52088630020F5E7000028
:10416000300000202DE9F04305460F469046664892
:104170000068C0084FF47A71B0FBF1F000FB08F959
:1041800000BFB9F10000A9F1010903D14FF00040CF
:10419000BDE8F0836E6B06F045000028F1D006F410
:1041A00000600028EDD1686B00F0040010B104201D
:1041B000A863EDE7686B00F0010010B10120A8636F
:1041C000E6E7C520A8632846FFF787FDB84201D07F
:1041D0000120DDE700212846FFF788FD04464B4813
:1041E000204008B90020D3E704F00040B0F1004FB0
:1041F00002D14FF00070CBE704F08040B0F1804F67
:1042000001D14020C4E704F00050B0F1005F01D1BB
:104210008020BDE704F08050B0F1805F02D14FF400
:104220008070B5E704F00060B0F1006F02D14FF488
:104230000070ADE704F08060B0F1806F02D14FF400
:104240008060A5E704F08070B0F1807F02D14FF468
:1042500000609DE704F40000B0F5000F02D14FF4B8
:10426000805095E704F48000B0F5800F02D14FF440
:1042700000508DE704F40010B0F5001F02D14FF498
:10428000804085E704F48010B0F5801F02D14FF420
:1042900000407DE704F48020B0F5802F02D14FF478
:1042A000003075E704F40030B0F5003F02D14FF460
:1042B00080206DE704F48030B0F5803F02D14FF4E8
:1042C000002065E704F40040B0F5004F02D14FF440
:1042D00080105DE704F48040B0F5804F02D14FF4C8
:1042E000001055E704F40050B0F5005F02D14FF420
:1042F00080004DE704F00800082801D1000547E7D9
:104300004FF4803044E700003000002008E0FFFD5B
:1043100010B5014616480068C0084FF47A74B0FB27
:10432000F4F041F2883400FB04F300BF181EA3F13F
:10433000010302D14FF0004010BD4A6B02F045006E
:104340000028F3D002F400600028EFD1486B00F0A1
:10435000040010B104208863EEE7486B00F0010010
:1043600010B101208863E7E7C52088630020E3E7F8
:104370003000002010B5014613480068C0084FF413
:104380007A74B0FBF4F041F2883400FB04F300BF10
:10439000181EA3F1010302D14FF0004010BD4A6B7B
:1043A00002F045000028F3D002F400600028EFD1AD
:1043B000486B00F0040010B104208863EEE7C520CC
:1043C00088630020EAE70000300000202DE9F04378
:1043D00004460F4690462A480068C0084FF47A7198
:1043E000B0FBF1F041F2883100FB01F900BFB9F1F7
:1043F0000000A9F1010903D14FF00040BDE8F083AE
:10440000666B06F045000028F1D006F40060002835
:10441000EDD1606B00F0040010B10420A063EDE763
:10442000606B00F0010010B10120A063E6E72046B8
:10443000FFF753FCB84201D00120DFE7C520A0639D
:1044400000212046FFF752FC054605F4604020B9E4
:10445000280CA8F800000020D0E705F48040B0F553
:10446000804F02D14FF40050C8E705F40040B0F58A
:10447000004F02D14FF48050C0E74FF48030BDE7C9
:104480003000002010B5014618480068C0084FF4FD
:104490007A74B0FBF4F041F2883400FB04F300BFFF
:1044A000181EA3F1010302D14FF0004010BD4A6B6A
:1044B00002F045000028F3D002F400600028EFD19C
:1044C000486B00F0040010B104208863EEE7486BED
:1044D00000F0010010B101208863E7E7486B00F0AD
:1044E000400008B1402088630020DFE73000002052
:1044F0002DE9F04389B004460F46FDF74FFC814695
:104500004FF000080020019002903E4608212068EC
:10451000FFF76EFC05461DB1284609B0BDE8F083E3
:104520005022125B11042068FFF727FC05460DB1ED
:104530002846F2E74FF0FF30039008200490302027
:10454000059002200690002007900120089003A902
:104550002068FFF7ACFB2068FFF739FD05460DB179
:104560002846DAE71CE02068406B00F4001040B1F8
:104570002068FFF7E4FB01A941F8280008F10108D1
:1045800005E02068406B00F4005000B90EE0FDF734
:1045900005FCA0EB0900401C10B94FF00040BCE73F
:1045A0002068406B00F02A000028DCD000BF2068A3
:1045B000406B00F0080018B1082021688863ACE760
:1045C0002068406B00F0020018B102202168886367
:1045D000A3E72068406B00F0200018B1202021687C
:1045E00088639AE740F23A5021688863029800068F
:1045F000029901F47F4140EA0120029901F47F0110
:1046000040EA1120029940EA11603060361D01989D
:104610000006019901F47F4140EA0120019901F46B
:104620007F0140EA1120019940EA116030600020CA
:1046300073E730B58FB00446012003902068FFF780
:1046400050FB18B94FF080600FB030BD606C03288C
:104650001BD02068FFF789FC05460DB12846F3E71B
:1046600000212068FFF742FB606704212068FFF704
:104670003DFBA06708212068FFF738FBE0670C21AD
:104680002068FFF733FB80210851606C032807D0B6
:1046900003A92068FFF7D3FC05460DB12846D3E7F0
:1046A000606C032820D0BDF80C1021655022125BED
:1046B00011042068FFF772FC05460DB12846C3E7D8
:1046C00000212068FFF712FB606604212068FFF7D5
:1046D0000DFBA06608212068FFF708FBE0660C21AF
:1046E0002068FFF703FB206704212068FFF7FEFA2C
:1046F000010DE16404A92046FDF7F6FF10B14FF06B
:104700008050A1E75020005B01040A460023206886
:10471000FFF70EFC05460DB1284695E7D4E90412D3
:10472000A069CDE90012029094E80F00FFF7E4FAC7
:10473000002089E7F8B504460020009000260027F5
:104740002068FFF78DFB05460DB12846F8BD2068AF
:10475000FFF79CFB054645B10021A1642068FFF7E7
:104760007FFB05461DB12846F0E70121A164A06C3E
:10477000012808D100212068FFF7FFFA054615B18E
:104780004FF08050E2E71DE000212068FFF7F5FAC6
:1047900005460DB12846D9E718492068FFF70AFBFE
:1047A000054615B14FF08050D0E700212068FFF793
:1047B0009DFA0646012080EAD67080F00107009835
:1047C000401C00904FF6FF710098884201D2002FE4
:1047D000DAD04FF6FF710098884202D34FF0807014
:1047E000B4E706F08040B0F1804F02D10120606450
:1047F00001E0002060640020A8E70000000010C174
:1048000070B504460D4615B94FF0006070BD5022DA
:10481000125B11042068FFF7F6FB06460EB1304626
:10482000F4E700212068FFF761FA28600020EDE737
:104830007CB5044600200090019000212068FFF71D
:1048400055FA00F00070B0F1007F02D14FF4006023
:104850007CBD69462046FFF74BFE05460DB1284654
:10486000F6E7019800F4803098B15022125B1104F1
:104870002068FFF782FA05460DB12846E8E70021D7
:104880002068FFF7D1FA05460DB12846E0E7002081
:10489000DEE74FF08060DBE77CB504460020009047
:1048A000019000212068FFF721FA00F00070B0F1BC
:1048B000007F02D14FF400607CBD69462046FFF7BF
:1048C00017FE05460DB12846F6E7019800F4802052
:1048D00098B15022125B11042068FFF74EFA05468A
:1048E0000DB12846E8E702212068FFF79DFA05464A
:1048F0000DB12846E0E70020DEE74FF08060DBE7FF
:104900007CB504460D461646164800681821B0FBD3
:10491000F1F01549B0FBF1F04FF47A714843019082
:104920006068B0F5827F0DD12B46002280212046A1
:10493000009600F01BF898B1606D40F020006065B3
:1049400003207CBD00BF019800B908E00198401E1B
:10495000019020688068C0F3C0100028F3D100BF28
:104960000020EEE73000002040420F002DE9F84F14
:1049700004460D4690461E46DDF82890FDF70EFAD7
:10498000A0EB0900371AFDF709FA82462C480068A7
:10499000C0F3CB307843009045E0701C002842D033
:1049A000FDF7FCF9A0EB0A00B84200D2A7BB2068D3
:1049B000406820F0E000216848606068B0F5827FC0
:1049C0000DD1A068B0F5004F03D0A068B0F5806F9E
:1049D00005D12068006820F0400021680860A06AC6
:1049E000B0F5005F0DD100BF2068006820F40050D2
:1049F000216808602068006840F400502168086061
:104A000000BF012084F8510000BF002084F850004E
:104A100000BF0320BDE8F88FFFE7009800B900272A
:104A20000098401E0090206880682840A84201D16C
:104A3000012000E000204045AFD10020EAE700005F
:104A400030000020704710B5FDF7AEF910BD000032
:104A50000348006840F47000014908607047000096
:104A600088ED00E010B50248FEF7FCFD10BD000027
:104A70008C1C002010B50E480068C06800F00100D2
:104A800078B10C49086980470020094909684862E3
:104A900000BF642006490968C86264210448C160F7
:104AA00000BF6FF0010002490968086110BD0000F5
:104AB000D41C00209800002010B50268294B9842B1
:104AC0000ED0B0F1804F0BD0274B984208D0274B27
:104AD000984205D0264B984202D0264B984203D1EB
:104AE00022F070024B681A431E4B984220D0B0F15E
:104AF000804F1DD01C4B98421AD01C4B984217D0A7
:104B00001B4B984214D01B4B984211D01A4B984221
:104B10000ED01A4B98420BD0194B984208D0194B23
:104B2000984205D0184B984202D0184B984203D1B6
:104B300022F44072CB681A4322F080034C6943EAA6
:104B4000040202608B68C3620B688362054B984263
:104B500002D0084B984201D10B69036301234361E2
:104B600010BD0000000001400004004000080040AB
:104B7000000C00400004014000400140004401409E
:104B80000048014000180040001C00400020004088
:104B900070B50546AC6B0020E085E0842046FEF74A
:104BA00045FE70BD0168C96821F490710268D1604A
:104BB0000168496921F0010102685161016B012915
:104BC00005D10168C96821F010010268D160202177
:104BD00080F83E1000210163704710B5044620683C
:104BE000C06820F040002168C860202084F83D00A3
:104BF0002046FFF755F8002010BD70B5044694F824
:104C00003E00222856D1A068B0F5805F0CD1206903
:104C100050B90025A66A20684068C0F308003080BB
:104C2000A06A801CA06215E0A56A0026A068B0F505
:104C3000805F03D0A06828B9206918B9206840684F
:104C4000287004E02068406800F07F002870A06AA7
:104C5000401CA062E08D401E80B2E08540BB206811
:104C6000C06820F020002168C8602068C06820F477
:104C700080702168C8602068406920F001002168C8
:104C80004861202084F83E00206B01280AD120686A
:104C9000C06820F010002168C860A18D2046FEF792
:104CA000C4FD02E02046FEF7ADFF0020206370BD8A
:104CB0000020FCE70220FAE72DE9F84F04462068BF
:104CC000006920F44050E1680843216808612169C7
:104CD000A068084361690843E169084300902068BF
:104CE000C06849F20C618843009908432168C86094
:104CF0002068406920F44070A16908432168486138
:104D000076492068884203D075492068884203D1DB
:104D1000FDF7D0F9814602E0FDF7BCF98146E06974
:104D2000B0F5004F6CD102206168A0FB0150034632
:104D30001920A9FB007001462A463846FBF748FABD
:104D40006421B0FBF1F04FEA001A02206168A0FB79
:104D500001510B461920A9FB00712A463846FBF782
:104D600037FA834602206168A0FB015003461920F0
:104D7000A9FB00712A463846FBF72AFA6421B0FBEA
:104D8000F1F000EBC00101EB0010ABEB8000322131
:104D900001EBC0006421B0FBF1F000F0F8000AEB79
:104DA000400A02206168A0FB015003461920A9FBBC
:104DB000007001462A463846FBF70AFA834602206D
:104DC0006168A0FB015003461920A9FB00712A4627
:104DD0003846FBF7FDF96421B0FBF1F000EBC001B0
:104DE00001EB0010ABEB8000322101EBC00064212D
:104DF000B0FBF1F000F007005044216888606AE0E1
:104E000004206168A0FB015003461920A9FB007033
:104E100001462A463846FBF7DBF9824604206168E2
:104E2000A0FB015003461920A9FB007001462A4649
:104E30003846FBF7CDF96421B0FBF1F000EBC0017F
:104E400001EB0010AAEB8000322101EB001064217D
:104E5000B0FBF1F000F0F00A04206168A0FB0170E3
:104E600003461920A9FB00513A462846FBF7B0F942
:104E70006421B0FBF1F00AEB001A04206168A0FB8A
:104E800001510B461920A9FB00712A463846FBF751
:104E90009FF9834604206168A0FB01500346192056
:104EA000A9FB007001462A463846FBF791F96421B8
:104EB000B0FBF1F000EBC00101EB0010ABEB8000A8
:104EC000322101EB00106421B0FBF1F000F00F0083
:104ED000504421688860BDE8F88F00000010014050
:104EE0000014014010B5034699629A85DA850020C6
:104EF0001864222083F83E0000BF002083F83C00A5
:104F000000BF1868C06840F480701C68E0601868D2
:104F1000406940F001001C6860611868C06840F09A
:104F200020001C68E060002010BD014691F83D00A3
:104F3000212828D18868B0F5805F0BD1086948B96D
:104F40000A6A1088C0F308000B685860086A801C61
:104F5000086205E00B6A581C086218780B685860F4
:104F6000C88C401E80B2C88458B90868C06820F058
:104F700080000B68D8600868C06840F040000B688B
:104F8000D860002070470220FCE7000010B50248FE
:104F9000FEF74EFC10BD0000FC0A002000BFFEE73B
:104FA0000FB4054B10B503A9044A029800F0D8FAD3
:104FB00010BC5DF814FB0000318E000838000020A2
:104FC0000FB4084B10B504A902AA039800F0C8FA60
:104FD000044602A9002000F05AFE204610BC5DF8ED
:104FE00014FB00008F5C000802480068C0F3022038
:104FF000704700000CED00E010B5002804DB0A0744
:10500000130E054A135406E00A07140E034A00F073
:105010000F031B1FD45410BD00E400E018ED00E0A6
:1050200010EE101A08B5444A6846B2EB410F28D971
:105030004FF0E640B0EB410F94BF00204FF0FF303F
:1050400000900098002861DB60EE000A10F0010F6C
:1050500045D010F0020FDFED391A9FED391A00EE3E
:10506000E11ADFED381A40EE811A21EEA01AF0EEB7
:10507000400A40EE010A08BFF1EE600AB0EE600A95
:1050800008BD314B21F0004293423CD911F0004F52
:10509000DFED2E0A20EE201ADFED2D0A19BF31EECA
:1050A000601A71EE200A31EE201A71EE600ABDEE30
:1050B000E01A11EE100A9FED271A00F0030000EE2F
:1050C000C10A9FED251A009000EEC10A9FED231A38
:1050D00000EEC10A9FED221A00EEC10AB1E79FED72
:1050E000211A9FED210A10F0020F00EE810A9FEDB8
:1050F0001F1A00EE801AB7EE000A00EE810A18BFF0
:10510000B1EE400A08BD00F0A9F89AE710EE100AC7
:105110004000B0F17F4F3CBFB7EE000A08BD07D199
:105120004FF0010000F054F9BDE8084000F08EB8DF
:10513000BDE8084000F086B8B61F927E336D4C394A
:10514000DA82083CA0AA2ABE490E494683F9223FCA
:105150000000004B0000C93F00A0FD390020A23331
:105160001A61342CB93AB2BACA9F2A3DDDFFFFBE9C
:1051700010B52DED028BB0EE408A18EE100AFBF749
:1051800012F901EE100A18EE100AB7EE000A78EED6
:10519000410A10F0004F4FF07F4010EE901A12D0ED
:1051A000B1F13F4F24BF10EE901AB0EB410F12D275
:1051B00010EE901AB1F17C5F1CDD10EE901AB0EB8E
:1051C000410F17D314E0B1F13F4F07D910EE901AF9
:1051D000B0EB410F02D331EE401A0BE010EE901A03
:1051E000B1F17C5F06DB10EE901AB0EB410F01D3FA
:1051F00031EE001A18EE100ABDEC028B11EE101AF7
:1052000061F31E0000EE100A10BD10B52DED028BEB
:10521000B1EEC08A18EE100A20F00040C0F1FF4045
:10522000C00F0AD010EE100A20F00040C0F1FF407D
:10523000C00F04BF012000F0CBF8B0EE480ABDEC6F
:10524000028B10BD30EE000A70470000DFED020A4D
:1052500080EEA00A70470000000000002DE9F00178
:105260004FF07F42B2EB410F9FBF4FF0FF31016023
:10527000BDE8F00170474FF0004242EA0123C1F35C
:10528000C752783A551112F01F0C434CCCF120064E
:105290007C44C1F3C752A2F178024FEA621204EBD8
:1052A000820254F8254008BFD2E9015612D0556851
:1052B00004FA0CF425FA06F73C43976805FA0CF556
:1052C00027FA06F8D26807FA0CFCF24045EA08050E
:1052D0004CEA0206A4FB034CA5FB0352A6FB0363A6
:1052E0001D449D4234BF012600261319334416B1D4
:1052F000934202D903E0934201D2012200E000224E
:10530000624402F1200C9206DC0C42EA443200EEC8
:10531000102A5B03DFED210AF8EEC01A00EE103A06
:105320004FEA9C1C11F0004FB8EE400AC0F800C0D4
:1053300020EE201A00EE105ADFED190AB8EE400AEE
:1053400020EE200A71EE810A70EE800A10EE902A9B
:1053500002F500626FF30B0200EE902A70EEE11A84
:1053600031EEC11ADFED101A30EE411A9FED0D0A31
:1053700020EE800A01EE210A9FED0C1A00EE810A50
:1053800004BFBDE8F0017047CCF180510160BDE879
:10539000F001B1EE400A70474435030000000036CA
:1053A0000000802C22AAFD29DB0FC92F0000C92F85
:1053B00002E008C8121F08C1002AFAD170477047DE
:1053C000002001E001C1121F002AFBD1704700003C
:1053D0000149086070470000EC0100202DE9FF5FE3
:1053E00082B00021DDE90430020DDDF840B0034356
:1053F00018D044F61050A2F2FF324243151411980F
:1054000001281FD0A5EB0B00401C5FEA000A4FF0FB
:1054100000064E4FDFF83891B046504615D5CAF118
:10542000000413E0119801244AA3012801D16FEA76
:105430000B010298119AC0E90031C0E9024206B09E
:10544000BDE8F09FCBF10000DFE704460021404AB1
:10545000491842EB0450CDE9001012E0E00707D0F4
:1054600032463B4640464946FBF762F8804689464D
:1054700032463B4610461946FBF75AF806460F4699
:105480006410002CEAD1DDE90401DDE90023BAF162
:10549000000F06DAFBF74CF842464B46FBF748F89C
:1054A00005E0FBF7B7F842464B46FBF7B3F8044676
:1054B0000E460022284BFAF729FF03D84FF0FF30A1
:1054C000014607E00022254B20463146FAF789FFC6
:1054D000FBF70FF9102409E0002C0ADB0A22002355
:1054E000FAF776FE039B30321A55641E50EA010229
:1054F000F2D1641C039AC4F111031444119A012AD5
:1055000003D0012208430DD10AE0084304D0002053
:105510004FF0110B119072E7A3EB0B056D1E0DE020
:105520005B4504DD4FF0000205F1010504E003DAFC
:105530004FF00002A5F10105002AECD00298119964
:10554000C0E90231C0E9004579E7000000001440DD
:105550000000F03F300000000000F0430000E03F9A
:105560002DE9FF4F95B09B468946064600250FE280
:10557000252877D100242746F84A0121059400E028
:10558000044316F8013F203B01FA03F01042F7D123
:1055900030782A2811D06FF02F033078A0F1300234
:1055A000092A16D8059A44F0020402EB820203EBA2
:1055B00042021044761C0590EFE759F8042B05923F
:1055C000002A03DA504244F40054059044F00204E7
:1055D000761C30782E2816D116F8010F44F00404FA
:1055E0002A280DD06FF02F023078A0F13003092B5C
:1055F00009D807EB870302EB4303C718761CF3E7D0
:1056000059F8047B761C30786C280FD006DC4C28C7
:1056100017D068280DD06A2814D104E0742810D05F
:105620007A280FD10DE044F400140AE044F4801409
:1056300001E044F440147278824202D104F58014EF
:10564000761C761C307866280BD013DC582877D06F
:1056500009DC002875D04528F6D04628F4D0472824
:105660001AD19DE118E0632835D0642879D06528E7
:1056700012D195E1702873D008DC6728F1D0692831
:105680006FD06E280DD06F2806D1B5E073282CD0CE
:10569000752875D0782874D05A46179990476D1C94
:1056A00075E1C4F30250022809D003280DD0D9F8BF
:1056B000001004280DD00D6009F1040967E1D9F844
:1056C0000010EA17C1E90052F6E7D9F800100D8082
:1056D000F2E70D70F0E719F8041B8DF800100020B8
:1056E0008DF80100EA46012003E059F804AB4FF0C1
:1056F000FF3061074FF0000102D40DE008F1010115
:105700008846B9420FDA8045F8DB1AF808100029FC
:10571000F4D108E008F1010188468142FADB1AF869
:1057200008100029F6D105985B46A0EB0807214632
:105730003846179A00F094FA284400EB080507E071
:105740004DE029E10DE01AF8010B5A4617999047F0
:10575000B8F10108F7D25B4621463846179A13E1A3
:1057600042E00A220092C4F302524FF0000A022AD9
:1057700008D059F804CB032A4FEAEC710AD00DE0A7
:1057800029E02AE009F1070121F00702F2E802C14D
:10579000914609E00FFA8CFC4FEAEC71042A03D120
:1057A0004FFA8CFC4FEAEC71002907DA0A46002117
:1057B000DCF1000C61EB02012D2202E0220504D590
:1057C0002B228DF80420012203E0E20701D02022E1
:1057D000F7E7904659E00A2102E010220DE010217F
:1057E0004FF0000A00910BE010224FF0000A44F045
:1057F00004040827009203E008224FF0000A0092F8
:10580000C4F30252022A05D059F804CB0021032A1E
:1058100008D009E009F1070121F00702F2E802C10E
:10582000914605E01FFA8CFC042A01D10CF0FF0C14
:105830004FF00008220728D5702806D0009B83F07F
:10584000100353EA0A0305D00EE040228DF804202D
:10585000012208E05CEA010206D030228DF8042023
:105860008DF8050002229046009B83F0080353EA5E
:105870000A030AD15CEA010201D1620705D5302290
:105880008DF804204FF001087F1E582804D034A062
:1058900003900EA802900DE036A0F9E7534660464B
:1058A000009AFAF795FC84460398825C0298401EA1
:1058B000029002705CEA0100F0D1029806A9081A71
:1058C00000F1200A600702D524F4803400E00127AB
:1058D000574502DDA7EB0A0000E0002000EB0A01BB
:1058E000009005984144401A0590E00306D45B46B9
:1058F0002146179A059800F0B3F90544002706E001
:1059000001A85A46C05D179990476D1C7F1C4745FA
:10591000F6DBE0030CD55B462146179A059800F0AC
:105920009FF9054404E030205A46179990476D1CB2
:105930000099481E00900029F5DC08E002980299C1
:105940005A460078491C0291179990476D1CBAF18C
:105950000001AAF1010AF1DC65E10000092801005B
:1059600030313233343536373839616263646566D5
:105970000000000030313233343536373839414297
:10598000434445460000000000F058F90544761CE9
:10599000307800287FF4ECAD19B02846BDE8F08FD0
:1059A000620700D4062709F1070222F0070CFCE881
:1059B0000223E14603F000485FEA080C02D00FF230
:1059C000702C0DE05FEA045C02D50FF2682C07E052
:1059D0005FEAC47C02D00FF2602C01E0AFF2700CE1
:1059E0004FF0FF3823F00043CDF850C065280CD0AD
:1059F00006DC452809D046281DD047283DD13DE08A
:105A0000662818D067287ED138E00021112F01DBED
:105A1000112000E0781CCDE9000106A90EA8FFF7CF
:105A2000DDFCDDE90F010E9A03910021009207F1E0
:105A3000010A04914DE04FF000400097CDE90110BC
:105A400006A90EA8FFF7CAFCDDE90F0203920E9B20
:105A500011990022DDF80CA00093049211B9791C71
:105A600000EB010AB7EB0A0004D4C0F1FF3007F1E4
:105A7000010A0490AAEB0700019044E0012F00DA2C
:105A800001270021112F01DD112000E03846CDE96A
:105A9000000106A90EA8FFF7A1FCDDE90F010E9A8F
:105AA0000391002104910092BA4621070CD4039976
:105AB000514500DA8A46BAF1010F05DD009AAAF1D4
:105AC0000101515C302908D0B84202DA10F1040F0C
:105AD00006DA0121CDE9011015E0AAF10101E9E79B
